{
  "contracts/Claim.sol": {
    "Claim": {
      "abi": [
        {
          "inputs": [
            {
              "internalType": "uint256",
              "name": "_depositAmount",
              "type": "uint256"
            }
          ],
          "stateMutability": "nonpayable",
          "type": "constructor"
        },
        {
          "anonymous": false,
          "inputs": [
            {
              "indexed": false,
              "internalType": "address",
              "name": "lastDepositAddress",
              "type": "address"
            },
            {
              "indexed": false,
              "internalType": "uint256",
              "name": "lastDepositTimestamp",
              "type": "uint256"
            },
            {
              "indexed": false,
              "internalType": "uint256",
              "name": "currentDepositTotal",
              "type": "uint256"
            }
          ],
          "name": "ButtonPressed",
          "type": "event"
        },
        {
          "anonymous": false,
          "inputs": [
            {
              "indexed": false,
              "internalType": "address",
              "name": "winner",
              "type": "address"
            },
            {
              "indexed": false,
              "internalType": "uint256",
              "name": "amount",
              "type": "uint256"
            }
          ],
          "name": "TreasureClaimed",
          "type": "event"
        },
        {
          "inputs": [],
          "name": "claim_treasure",
          "outputs": [],
          "stateMutability": "nonpayable",
          "type": "function"
        },
        {
          "inputs": [],
          "name": "press_button",
          "outputs": [],
          "stateMutability": "payable",
          "type": "function"
        }
      ],
      "evm": {
        "bytecode": {
          "linkReferences": {},
          "object": "6080604052600360015534801561001557600080fd5b506040516102f13803806102f18339810160408190526100349161003c565b600055610055565b60006020828403121561004e57600080fd5b5051919050565b61028d806100646000396000f3fe6080604052600436106100295760003560e01c80630736783d1461002e578063aef4da6b14610038575b600080fd5b61003661004d565b005b34801561004457600080fd5b506100366100fc565b600054341461009e5760405162461bcd60e51b815260206004820152601860248201527711195c1bdcda5d08185b5bdd5b9d081a5b98dbdc9c9958dd60421b60448201526064015b60405180910390fd5b600280546001600160a01b0319163390811790915542600381905560408051928352602083019190915247908201527fe816972f464a9da2ff9fbb1570e69df8b700d86c54445aa3d3bc294e950c42dc9060600160405180910390a1565b6003805461010991610231565b42116101525760405162461bcd60e51b81526020600482015260186024820152770cc8189b1bd8dadcc81a185d99481b9bdd081c185cdcd95960421b6044820152606401610095565b6002546001600160a01b031633146101ac5760405162461bcd60e51b815260206004820152601f60248201527f53656e646572206e6f74206c617374206465706f7369742061646472657373006044820152606401610095565b604051479033904780156108fc02916000818181858888f193505050501580156101da573d6000803e3d6000fd5b506101f5600280546001600160a01b03191690556000600355565b60408051338152602081018390527f7151373c0d0295528f4c8ac21f617ca49b0b55d733e561e051572d579b20fae3910160405180910390a150565b6000821982111561025257634e487b7160e01b600052601160045260246000fd5b50019056fea2646970667358221220fff19a0bb8d12449ec9a31e13e8577b18099fc32970a54dbd44195637a2a802c64736f6c634300080b0033",
          "opcodes": "PUSH1 0x80 PUSH1 0x40 MSTORE PUSH1 0x3 PUSH1 0x1 SSTORE CALLVALUE DUP1 ISZERO PUSH2 0x15 JUMPI PUSH1 0x0 DUP1 REVERT JUMPDEST POP PUSH1 0x40 MLOAD PUSH2 0x2F1 CODESIZE SUB DUP1 PUSH2 0x2F1 DUP4 CODECOPY DUP2 ADD PUSH1 0x40 DUP2 SWAP1 MSTORE PUSH2 0x34 SWAP2 PUSH2 0x3C JUMP JUMPDEST PUSH1 0x0 SSTORE PUSH2 0x55 JUMP JUMPDEST PUSH1 0x0 PUSH1 0x20 DUP3 DUP5 SUB SLT ISZERO PUSH2 0x4E JUMPI PUSH1 0x0 DUP1 REVERT JUMPDEST POP MLOAD SWAP2 SWAP1 POP JUMP JUMPDEST PUSH2 0x28D DUP1 PUSH2 0x64 PUSH1 0x0 CODECOPY PUSH1 0x0 RETURN INVALID PUSH1 0x80 PUSH1 0x40 MSTORE PUSH1 0x4 CALLDATASIZE LT PUSH2 0x29 JUMPI PUSH1 0x0 CALLDATALOAD PUSH1 0xE0 SHR DUP1 PUSH4 0x736783D EQ PUSH2 0x2E JUMPI DUP1 PUSH4 0xAEF4DA6B EQ PUSH2 0x38 JUMPI JUMPDEST PUSH1 0x0 DUP1 REVERT JUMPDEST PUSH2 0x36 PUSH2 0x4D JUMP JUMPDEST STOP JUMPDEST CALLVALUE DUP1 ISZERO PUSH2 0x44 JUMPI PUSH1 0x0 DUP1 REVERT JUMPDEST POP PUSH2 0x36 PUSH2 0xFC JUMP JUMPDEST PUSH1 0x0 SLOAD CALLVALUE EQ PUSH2 0x9E JUMPI PUSH1 0x40 MLOAD PUSH3 0x461BCD PUSH1 0xE5 SHL DUP2 MSTORE PUSH1 0x20 PUSH1 0x4 DUP3 ADD MSTORE PUSH1 0x18 PUSH1 0x24 DUP3 ADD MSTORE PUSH24 0x11195C1BDCDA5D08185B5BDD5B9D081A5B98DBDC9C9958DD PUSH1 0x42 SHL PUSH1 0x44 DUP3 ADD MSTORE PUSH1 0x64 ADD JUMPDEST PUSH1 0x40 MLOAD DUP1 SWAP2 SUB SWAP1 REVERT JUMPDEST PUSH1 0x2 DUP1 SLOAD PUSH1 0x1 PUSH1 0x1 PUSH1 0xA0 SHL SUB NOT AND CALLER SWAP1 DUP2 OR SWAP1 SWAP2 SSTORE TIMESTAMP PUSH1 0x3 DUP2 SWAP1 SSTORE PUSH1 0x40 DUP1 MLOAD SWAP3 DUP4 MSTORE PUSH1 0x20 DUP4 ADD SWAP2 SWAP1 SWAP2 MSTORE SELFBALANCE SWAP1 DUP3 ADD MSTORE PUSH32 0xE816972F464A9DA2FF9FBB1570E69DF8B700D86C54445AA3D3BC294E950C42DC SWAP1 PUSH1 0x60 ADD PUSH1 0x40 MLOAD DUP1 SWAP2 SUB SWAP1 LOG1 JUMP JUMPDEST PUSH1 0x3 DUP1 SLOAD PUSH2 0x109 SWAP2 PUSH2 0x231 JUMP JUMPDEST TIMESTAMP GT PUSH2 0x152 JUMPI PUSH1 0x40 MLOAD PUSH3 0x461BCD PUSH1 0xE5 SHL DUP2 MSTORE PUSH1 0x20 PUSH1 0x4 DUP3 ADD MSTORE PUSH1 0x18 PUSH1 0x24 DUP3 ADD MSTORE PUSH24 0xCC8189B1BD8DADCC81A185D99481B9BDD081C185CDCD959 PUSH1 0x42 SHL PUSH1 0x44 DUP3 ADD MSTORE PUSH1 0x64 ADD PUSH2 0x95 JUMP JUMPDEST PUSH1 0x2 SLOAD PUSH1 0x1 PUSH1 0x1 PUSH1 0xA0 SHL SUB AND CALLER EQ PUSH2 0x1AC JUMPI PUSH1 0x40 MLOAD PUSH3 0x461BCD PUSH1 0xE5 SHL DUP2 MSTORE PUSH1 0x20 PUSH1 0x4 DUP3 ADD MSTORE PUSH1 0x1F PUSH1 0x24 DUP3 ADD MSTORE PUSH32 0x53656E646572206E6F74206C617374206465706F736974206164647265737300 PUSH1 0x44 DUP3 ADD MSTORE PUSH1 0x64 ADD PUSH2 0x95 JUMP JUMPDEST PUSH1 0x40 MLOAD SELFBALANCE SWAP1 CALLER SWAP1 SELFBALANCE DUP1 ISZERO PUSH2 0x8FC MUL SWAP2 PUSH1 0x0 DUP2 DUP2 DUP2 DUP6 DUP9 DUP9 CALL SWAP4 POP POP POP POP ISZERO DUP1 ISZERO PUSH2 0x1DA JUMPI RETURNDATASIZE PUSH1 0x0 DUP1 RETURNDATACOPY RETURNDATASIZE PUSH1 0x0 REVERT JUMPDEST POP PUSH2 0x1F5 PUSH1 0x2 DUP1 SLOAD PUSH1 0x1 PUSH1 0x1 PUSH1 0xA0 SHL SUB NOT AND SWAP1 SSTORE PUSH1 0x0 PUSH1 0x3 SSTORE JUMP JUMPDEST PUSH1 0x40 DUP1 MLOAD CALLER DUP2 MSTORE PUSH1 0x20 DUP2 ADD DUP4 SWAP1 MSTORE PUSH32 0x7151373C0D0295528F4C8AC21F617CA49B0B55D733E561E051572D579B20FAE3 SWAP2 ADD PUSH1 0x40 MLOAD DUP1 SWAP2 SUB SWAP1 LOG1 POP JUMP JUMPDEST PUSH1 0x0 DUP3 NOT DUP3 GT ISZERO PUSH2 0x252 JUMPI PUSH4 0x4E487B71 PUSH1 0xE0 SHL PUSH1 0x0 MSTORE PUSH1 0x11 PUSH1 0x4 MSTORE PUSH1 0x24 PUSH1 0x0 REVERT JUMPDEST POP ADD SWAP1 JUMP INVALID LOG2 PUSH5 0x6970667358 0x22 SLT KECCAK256 SELFDESTRUCT CALL SWAP11 SIGNEXTEND 0xB8 0xD1 0x24 0x49 0xEC SWAP11 BALANCE 0xE1 RETURNDATACOPY DUP6 PUSH24 0xB18099FC32970A54DBD44195637A2A802C64736F6C634300 ADDMOD SIGNEXTEND STOP CALLER "
        },
        "methodIdentifiers": {
          "claim_treasure()": "aef4da6b",
          "press_button()": "0736783d"
        }
      }
    }
  }
}