{
  "_format": "hh-sol-artifact-1",
  "contractName": "TheButton",
  "sourceName": "contracts/TheButton.sol",
  "abi": [
    {
      "inputs": [
        {
          "internalType": "uint256",
          "name": "_depositAmount",
          "type": "uint256"
        }
      ],
      "stateMutability": "nonpayable",
      "type": "constructor"
    },
    {
      "anonymous": false,
      "inputs": [
        {
          "indexed": false,
          "internalType": "address",
          "name": "lastDepositAddress",
          "type": "address"
        },
        {
          "indexed": false,
          "internalType": "uint256",
          "name": "lastDepositTimestamp",
          "type": "uint256"
        },
        {
          "indexed": false,
          "internalType": "uint256",
          "name": "currentDepositTotal",
          "type": "uint256"
        }
      ],
      "name": "ButtonPressed",
      "type": "event"
    },
    {
      "anonymous": false,
      "inputs": [
        {
          "indexed": true,
          "internalType": "address",
          "name": "previousOwner",
          "type": "address"
        },
        {
          "indexed": true,
          "internalType": "address",
          "name": "newOwner",
          "type": "address"
        }
      ],
      "name": "OwnershipTransferred",
      "type": "event"
    },
    {
      "anonymous": false,
      "inputs": [
        {
          "indexed": false,
          "internalType": "address",
          "name": "winner",
          "type": "address"
        },
        {
          "indexed": false,
          "internalType": "uint256",
          "name": "amount",
          "type": "uint256"
        }
      ],
      "name": "TreasureClaimed",
      "type": "event"
    },
    {
      "inputs": [],
      "name": "blocksToPass",
      "outputs": [
        {
          "internalType": "uint256",
          "name": "",
          "type": "uint256"
        }
      ],
      "stateMutability": "view",
      "type": "function"
    },
    {
      "inputs": [],
      "name": "claim_treasure",
      "outputs": [],
      "stateMutability": "nonpayable",
      "type": "function"
    },
    {
      "inputs": [],
      "name": "depositAmount",
      "outputs": [
        {
          "internalType": "uint256",
          "name": "",
          "type": "uint256"
        }
      ],
      "stateMutability": "view",
      "type": "function"
    },
    {
      "inputs": [],
      "name": "lastDepositAddress",
      "outputs": [
        {
          "internalType": "address",
          "name": "",
          "type": "address"
        }
      ],
      "stateMutability": "view",
      "type": "function"
    },
    {
      "inputs": [],
      "name": "lastDepositTimestamp",
      "outputs": [
        {
          "internalType": "uint256",
          "name": "",
          "type": "uint256"
        }
      ],
      "stateMutability": "view",
      "type": "function"
    },
    {
      "inputs": [],
      "name": "owner",
      "outputs": [
        {
          "internalType": "address",
          "name": "",
          "type": "address"
        }
      ],
      "stateMutability": "view",
      "type": "function"
    },
    {
      "inputs": [],
      "name": "press_button",
      "outputs": [],
      "stateMutability": "payable",
      "type": "function"
    },
    {
      "inputs": [],
      "name": "renounceOwnership",
      "outputs": [],
      "stateMutability": "nonpayable",
      "type": "function"
    },
    {
      "inputs": [
        {
          "internalType": "address",
          "name": "newOwner",
          "type": "address"
        }
      ],
      "name": "transferOwnership",
      "outputs": [],
      "stateMutability": "nonpayable",
      "type": "function"
    }
  ],
  "bytecode": "0x6080604052600360025534801561001557600080fd5b5060405161064f38038061064f83398101604081905261003491610095565b61003d33610045565b6001556100ae565b600080546001600160a01b038381166001600160a01b0319831681178455604051919092169283917f8be0079c531659141344cd1fd0a4f28419497f9722a3daafe3b4186f6b6457e09190a35050565b6000602082840312156100a757600080fd5b5051919050565b610592806100bd6000396000f3fe6080604052600436106100765760003560e01c80630736783d1461007b578063419759f5146100855780636e322370146100ae578063715018a6146100e65780637eae9162146100fb5780638da5cb5b14610111578063aef4da6b14610126578063c3457c1c1461013b578063f2fde38b14610151575b600080fd5b610083610171565b005b34801561009157600080fd5b5061009b60015481565b6040519081526020015b60405180910390f35b3480156100ba57600080fd5b506003546100ce906001600160a01b031681565b6040516001600160a01b0390911681526020016100a5565b3480156100f257600080fd5b50610083610220565b34801561010757600080fd5b5061009b60025481565b34801561011d57600080fd5b506100ce61025b565b34801561013257600080fd5b5061008361026a565b34801561014757600080fd5b5061009b60045481565b34801561015d57600080fd5b5061008361016c3660046104d1565b6103e1565b60015434146101c25760405162461bcd60e51b815260206004820152601860248201527711195c1bdcda5d08185b5bdd5b9d081a5b98dbdc9c9958dd60421b60448201526064015b60405180910390fd5b600380546001600160a01b0319163390811790915542600481905560408051928352602083019190915247908201527fe816972f464a9da2ff9fbb1570e69df8b700d86c54445aa3d3bc294e950c42dc9060600160405180910390a1565b3361022961025b565b6001600160a01b03161461024f5760405162461bcd60e51b81526004016101b990610501565b6102596000610481565b565b6000546001600160a01b031690565b6004546102ab5760405162461bcd60e51b815260206004820152600f60248201526e139bc819195c1bdcda5d1cc81e595d608a1b60448201526064016101b9565b6004546102b9906003610536565b42116103025760405162461bcd60e51b81526020600482015260186024820152770cc8189b1bd8dadcc81a185d99481b9bdd081c185cdcd95960421b60448201526064016101b9565b6003546001600160a01b0316331461035c5760405162461bcd60e51b815260206004820152601f60248201527f53656e646572206e6f74206c617374206465706f73697420616464726573730060448201526064016101b9565b604051479033904780156108fc02916000818181858888f1935050505015801561038a573d6000803e3d6000fd5b506103a5600380546001600160a01b03191690556000600455565b60408051338152602081018390527f7151373c0d0295528f4c8ac21f617ca49b0b55d733e561e051572d579b20fae3910160405180910390a150565b336103ea61025b565b6001600160a01b0316146104105760405162461bcd60e51b81526004016101b990610501565b6001600160a01b0381166104755760405162461bcd60e51b815260206004820152602660248201527f4f776e61626c653a206e6577206f776e657220697320746865207a65726f206160448201526564647265737360d01b60648201526084016101b9565b61047e81610481565b50565b600080546001600160a01b038381166001600160a01b0319831681178455604051919092169283917f8be0079c531659141344cd1fd0a4f28419497f9722a3daafe3b4186f6b6457e09190a35050565b6000602082840312156104e357600080fd5b81356001600160a01b03811681146104fa57600080fd5b9392505050565b6020808252818101527f4f776e61626c653a2063616c6c6572206973206e6f7420746865206f776e6572604082015260600190565b6000821982111561055757634e487b7160e01b600052601160045260246000fd5b50019056fea264697066735822122058e9b5de9b16dd93594f0612d845c1e4236a57a087a33c6400ed4c7d46fdd91a64736f6c634300080b0033",
  "linkReferences": {},
  "deployedLinkReferences": {}
}