{
  "_format": "hh-sol-artifact-1",
  "contractName": "Claim",
  "sourceName": "contracts/Claim.sol",
  "abi": [
    {
      "inputs": [
        {
          "internalType": "uint256",
          "name": "_depositAmount",
          "type": "uint256"
        }
      ],
      "stateMutability": "nonpayable",
      "type": "constructor"
    },
    {
      "anonymous": false,
      "inputs": [
        {
          "indexed": false,
          "internalType": "address",
          "name": "lastDepositAddress",
          "type": "address"
        },
        {
          "indexed": false,
          "internalType": "uint256",
          "name": "lastDepositTimestamp",
          "type": "uint256"
        },
        {
          "indexed": false,
          "internalType": "uint256",
          "name": "currentDepositTotal",
          "type": "uint256"
        }
      ],
      "name": "ButtonPressed",
      "type": "event"
    },
    {
      "anonymous": false,
      "inputs": [
        {
          "indexed": false,
          "internalType": "address",
          "name": "winner",
          "type": "address"
        },
        {
          "indexed": false,
          "internalType": "uint256",
          "name": "amount",
          "type": "uint256"
        }
      ],
      "name": "TreasureClaimed",
      "type": "event"
    },
    {
      "inputs": [],
      "name": "claim_treasure",
      "outputs": [],
      "stateMutability": "nonpayable",
      "type": "function"
    },
    {
      "inputs": [],
      "name": "press_button",
      "outputs": [],
      "stateMutability": "payable",
      "type": "function"
    }
  ],
  "bytecode": "0x6080604052600360015534801561001557600080fd5b506040516102f13803806102f18339810160408190526100349161003c565b600055610055565b60006020828403121561004e57600080fd5b5051919050565b61028d806100646000396000f3fe6080604052600436106100295760003560e01c80630736783d1461002e578063aef4da6b14610038575b600080fd5b61003661004d565b005b34801561004457600080fd5b506100366100fc565b600054341461009e5760405162461bcd60e51b815260206004820152601860248201527711195c1bdcda5d08185b5bdd5b9d081a5b98dbdc9c9958dd60421b60448201526064015b60405180910390fd5b600280546001600160a01b0319163390811790915542600381905560408051928352602083019190915247908201527fe816972f464a9da2ff9fbb1570e69df8b700d86c54445aa3d3bc294e950c42dc9060600160405180910390a1565b6003805461010991610231565b42116101525760405162461bcd60e51b81526020600482015260186024820152770cc8189b1bd8dadcc81a185d99481b9bdd081c185cdcd95960421b6044820152606401610095565b6002546001600160a01b031633146101ac5760405162461bcd60e51b815260206004820152601f60248201527f53656e646572206e6f74206c617374206465706f7369742061646472657373006044820152606401610095565b604051479033904780156108fc02916000818181858888f193505050501580156101da573d6000803e3d6000fd5b506101f5600280546001600160a01b03191690556000600355565b60408051338152602081018390527f7151373c0d0295528f4c8ac21f617ca49b0b55d733e561e051572d579b20fae3910160405180910390a150565b6000821982111561025257634e487b7160e01b600052601160045260246000fd5b50019056fea2646970667358221220fff19a0bb8d12449ec9a31e13e8577b18099fc32970a54dbd44195637a2a802c64736f6c634300080b0033",
  "linkReferences": {},
  "deployedLinkReferences": {}
}